{
  "contractName": "dataStore",
  "abi": [
    {
      "inputs": [],
      "stateMutability": "nonpayable",
      "type": "constructor"
    },
    {
      "inputs": [],
      "name": "getUniqueID",
      "outputs": [
        {
          "internalType": "uint256",
          "name": "",
          "type": "uint256"
        }
      ],
      "stateMutability": "view",
      "type": "function",
      "constant": true
    },
    {
      "inputs": [],
      "name": "getAccountNumber",
      "outputs": [
        {
          "internalType": "bytes",
          "name": "",
          "type": "bytes"
        }
      ],
      "stateMutability": "view",
      "type": "function",
      "constant": true
    },
    {
      "inputs": [],
      "name": "getAvailableBalance",
      "outputs": [
        {
          "internalType": "bytes",
          "name": "",
          "type": "bytes"
        }
      ],
      "stateMutability": "view",
      "type": "function",
      "constant": true
    }
  ],
  "bytecode": "0x60806040523480156200001157600080fd5b5033600160006101000a81548173ffffffffffffffffffffffffffffffffffffffff021916908373ffffffffffffffffffffffffffffffffffffffff160217905550620000636200012d60201b60201c565b6002604051806060016040528060005481526020016040518060e0016040528060ac8152602001620009d260ac913981526020016040518060e0016040528060ac815260200162000a7e60ac913981525090806001815401808255809150506001900390600052602060002090600302016000909190919091506000820151816000015560208201518160010190805190602001906200010592919062000165565b5060408201518160020190805190602001906200012492919062000165565b5050506200036f565b4433426040516020016200014493929190620002c8565b6040516020818303038152906040528051906020012060001c600081905550565b82805462000173906200033a565b90600052602060002090601f016020900481019282620001975760008555620001e3565b82601f10620001b257805160ff1916838001178555620001e3565b82800160010185558215620001e3579182015b82811115620001e2578251825591602001919060010190620001c5565b5b509050620001f29190620001f6565b5090565b5b8082111562000211576000816000905550600101620001f7565b5090565b6000819050919050565b6000819050919050565b6200023e620002388262000215565b6200021f565b82525050565b600073ffffffffffffffffffffffffffffffffffffffff82169050919050565b6000620002718262000244565b9050919050565b60008160601b9050919050565b6000620002928262000278565b9050919050565b6000620002a68262000285565b9050919050565b620002c2620002bc8262000264565b62000299565b82525050565b6000620002d6828662000229565b602082019150620002e88285620002ad565b601482019150620002fa828462000229565b602082019150819050949350505050565b7f4e487b7100000000000000000000000000000000000000000000000000000000600052602260045260246000fd5b600060028204905060018216806200035357607f821691505b6020821081036200036957620003686200030b565b5b50919050565b610653806200037f6000396000f3fe608060405234801561001057600080fd5b50600436106100415760003560e01c8063809dab6a14610046578063c2e378aa14610064578063cba8388d14610082575b600080fd5b61004e6100a0565b60405161005b9190610495565b60405180910390f35b61006c6101ec565b60405161007991906104d0565b60405180910390f35b61008a6102b0565b6040516100979190610495565b60405180910390f35b6060600160009054906101000a900473ffffffffffffffffffffffffffffffffffffffff1673ffffffffffffffffffffffffffffffffffffffff163373ffffffffffffffffffffffffffffffffffffffff1614610132576040517f08c379a00000000000000000000000000000000000000000000000000000000081526004016101299061056e565b60405180910390fd5b600060026000815481106101495761014861058e565b5b90600052602060002090600302019050806002018054610168906105ec565b80601f0160208091040260200160405190810160405280929190818152602001828054610194906105ec565b80156101e15780601f106101b6576101008083540402835291602001916101e1565b820191906000526020600020905b8154815290600101906020018083116101c457829003601f168201915b505050505091505090565b6000600160009054906101000a900473ffffffffffffffffffffffffffffffffffffffff1673ffffffffffffffffffffffffffffffffffffffff163373ffffffffffffffffffffffffffffffffffffffff161461027e576040517f08c379a00000000000000000000000000000000000000000000000000000000081526004016102759061056e565b60405180910390fd5b600060026000815481106102955761029461058e565b5b90600052602060002090600302019050806000015491505090565b6060600160009054906101000a900473ffffffffffffffffffffffffffffffffffffffff1673ffffffffffffffffffffffffffffffffffffffff163373ffffffffffffffffffffffffffffffffffffffff1614610342576040517f08c379a00000000000000000000000000000000000000000000000000000000081526004016103399061056e565b60405180910390fd5b600060026000815481106103595761035861058e565b5b90600052602060002090600302019050806001018054610378906105ec565b80601f01602080910402602001604051908101604052809291908181526020018280546103a4906105ec565b80156103f15780601f106103c6576101008083540402835291602001916103f1565b820191906000526020600020905b8154815290600101906020018083116103d457829003601f168201915b505050505091505090565b600081519050919050565b600082825260208201905092915050565b60005b8381101561043657808201518184015260208101905061041b565b83811115610445576000848401525b50505050565b6000601f19601f8301169050919050565b6000610467826103fc565b6104718185610407565b9350610481818560208601610418565b61048a8161044b565b840191505092915050565b600060208201905081810360008301526104af818461045c565b905092915050565b6000819050919050565b6104ca816104b7565b82525050565b60006020820190506104e560008301846104c1565b92915050565b600082825260208201905092915050565b7f4f6e6c79206f776e65722063616e2063616c6c20746869732066756e6374696f60008201527f6e00000000000000000000000000000000000000000000000000000000000000602082015250565b60006105586021836104eb565b9150610563826104fc565b604082019050919050565b600060208201905081810360008301526105878161054b565b9050919050565b7f4e487b7100000000000000000000000000000000000000000000000000000000600052603260045260246000fd5b7f4e487b7100000000000000000000000000000000000000000000000000000000600052602260045260246000fd5b6000600282049050600182168061060457607f821691505b602082108103610617576106166105bd565b5b5091905056fea2646970667358221220790cd3f57ec28515e48afa2071647e2f7cb54bfd877bbae61a2e8520a42bf66164736f6c634300080d0033503173396f797972336d314b43574c66742f5277793870634e43506664554a76664e495a447a4943684358774f61613854616269576d483469334e58457367752f62656973444952705458734c4979524a726556366b2f54642b6a69367233374762703347455939582b3956576f32514f4d324961616557595675454d2f667a6c775232595a4b50472f45666b68612f6543744341306a67492f6e43322f4f4375324530654a395676314d3d447a30446879757762705877753932445034303644426c49756732377742306c58465341464f646c6f4633434d6c7536536c4e462b6144583862514c3134795a376654546d4e316c6e38494637444a335a3841493655497a746555494d635855542f544d304f752b50382f45337a394b6f72696d46484d2f4c664136795843566b6165494b30707862682f57766e4e412b6d335335532f4e2f50556f67545a422f4c3530476c6f78584b453d",
  "immutableReferences": {},
  "source": "// SPDX-License-Identifier: MIT\r\n\r\npragma solidity >=0.5.0 <0.9.0;\r\n\r\ncontract dataStore {\r\n\r\n    uint internal randomNumber;\r\n    address owner;\r\n    \r\n\r\n    struct userData {\r\n        uint uniqueID;\r\n        bytes accountNumber;\r\n        bytes availableBalance; \r\n    }\r\n\r\n    userData[] private usersData;\r\n\r\n    constructor () {\r\n        // set owner \r\n        owner = msg.sender;\r\n\r\n         // set the unique user ID\r\n        generateID(); \r\n\r\n\r\n        // push the unique ID, number and balance into struct\r\n        usersData.push(\r\n            userData({\r\n                uniqueID: randomNumber,\r\n                accountNumber: \"P1s9oyyr3m1KCWLft/Rwy8pcNCPfdUJvfNIZDzIChCXwOaa8TabiWmH4i3NXEsgu/beisDIRpTXsLIyRJreV6k/Td+ji6r37Gbp3GEY9X+9VWo2QOM2IaaeWYVuEM/fzlwR2YZKPG/Efkha/eCtCA0jgI/nC2/OCu2E0eJ9Vv1M=\",\r\n                availableBalance: \"Dz0DhyuwbpXwu92DP406DBlIug27wB0lXFSAFOdloF3CMlu6SlNF+aDX8bQL14yZ7fTTmN1ln8IF7DJ3Z8AI6UIzteUIMcXUT/TM0Ou+P8/E3z9KorimFHM/LfA6yXCVkaeIK0pxbh/WvnNA+m3S5S/N/PUogTZB/L50GloxXKE=\"\r\n            })\r\n        );   \r\n    }\r\n\r\n    modifier onlyOwner() {\r\n        require(msg.sender == owner, \"Only owner can call this function\");\r\n        _;\r\n    }\r\n    \r\n    function generateID () internal {\r\n\r\n        randomNumber= uint (keccak256(abi.encodePacked(block.difficulty, msg.sender, block.timestamp)));\r\n        \r\n    }\r\n\r\n    function getUniqueID () public view onlyOwner returns(uint) {\r\n        userData storage UserData =  usersData[0];\r\n        return UserData.uniqueID;\r\n    }\r\n\r\n    function getAccountNumber () public view onlyOwner returns(bytes memory) {\r\n        userData storage UserData =  usersData[0];\r\n        return UserData.accountNumber;\r\n    }\r\n\r\n    function getAvailableBalance () public view onlyOwner returns(bytes memory) {\r\n        userData storage UserData =  usersData[0];\r\n        return UserData.availableBalance;\r\n    }\r\n    \r\n\r\n}\r\n\r\n// RSA cryptography\r\n// 1024 bit\r\n\r\n// public key\r\n// MIGfMA0GCSqGSIb3DQEBAQUAA4GNADCBiQKBgQCS+pEmFJX/IACZIgCxVPqDrIzKM7GJY2QhOHgjpQ3wKFWAB45L7F5Q/NBy5WVlszq4WMOHrKYSnWA8OW16mO0c8sGQavoSk7XVVsRBwnv8d6lV/AUK/8A0Fwh8nv0x33kq5euJl4yApasoGF5wPHmn76X293jE0YsGMlAeBIVzWQIDAQAB\r\n\r\n// private key\r\n// MIICdwIBADANBgkqhkiG9w0BAQEFAASCAmEwggJdAgEAAoGBAJL6kSYUlf8gAJkiALFU+oOsjMozsYljZCE4eCOlDfAoVYAHjkvsXlD80HLlZWWzOrhYw4esphKdYDw5bXqY7RzywZBq+hKTtdVWxEHCe/x3qVX8BQr/wDQXCHye/THfeSrl64mXjIClqygYXnA8eafvpfb3eMTRiwYyUB4EhXNZAgMBAAECgYBiWAwE6eNPeM9Np0XFYfHZZvwxU5NoNTvLSqiAWTFRTvuele+td3PIRtEG/9zvxpP0w1fZkTjx3aGFynspe+ey3NgdVn9wOyLIePBfQO53CvI9AYuW5HeIEGlYx0VYzjJ9/7mGz+Pt94tBDzPkGS8WYlvlxUTYE1e4izxKsCnzgQJBAO5DbPHonj7dIUr1FtSAr0fJs/yZh5ifOAuuF9kbTRGLzYAjrS66EMdH1TkbzaViRd2SbdCdj5VMcD+0MetCGIkCQQCd64jtVo9RIiudZaDKTT4+yzHFLVYojKOchGcF155XzmM0f968grP9LpAIndtwkkrAUGzBSLVZG8ZSOtZrcjBRAkEAoTf8ar+k/BJyqZ6nYQjmEaQ45o4YQzxRFw4o0t33Sw0W80Kwt3JtUfqYG3llsCeL8L5ZEhTbCAHd3i0WrgJeSQJAAcVleLvyyYcnlBFSt1Icc5nVyg9TGwtQvm2htigP544yAKG6fsS8fgdqqB4VGvMZEYUVYymMlx4/oCZ2xye1sQJBALGEvLZUo9rax3uo7A2dSRY9UogNzSKK1T418o9e8/MkeMiOm72eY5xaR4njlGV3Px4si1WT4DKgp4YqV7JE3Xc=\r\n",
  "sourcePath": "C:\\Users\\User\\Desktop\\Full stack\\Dev test\\contracts\\dataStore.sol",
  "compiler": {
    "name": "solc",
    "version": "0.8.13+commit.abaa5c0e.Emscripten.clang"
  },
  "schemaVersion": "3.4.7",
  "updatedAt": "2022-07-21T13:28:02.668Z",
  "networkType": "ethereum",
  "devdoc": {
    "kind": "dev",
    "methods": {},
    "version": 1
  },
  "userdoc": {
    "kind": "user",
    "methods": {},
    "version": 1
  }
}