{
  "contractName": "Election",
  "abi": [
    {
      "inputs": [
        {
          "internalType": "uint256",
          "name": "",
          "type": "uint256"
        }
      ],
      "name": "candidates",
      "outputs": [
        {
          "internalType": "uint256",
          "name": "id",
          "type": "uint256"
        },
        {
          "internalType": "string",
          "name": "name",
          "type": "string"
        },
        {
          "internalType": "uint256",
          "name": "voteCount",
          "type": "uint256"
        }
      ],
      "stateMutability": "view",
      "type": "function"
    }
  ],
  "bytecode": "0x608060405234801561001057600080fd5b506102f8806100206000396000f3fe608060405234801561001057600080fd5b506004361061002b5760003560e01c80633477ee2e14610030575b600080fd5b61004a6004803603810190610045919061014f565b610062565b60405161005993929190610224565b60405180910390f35b600060205280600052604060002060009150905080600001549080600101805461008b90610291565b80601f01602080910402602001604051908101604052809291908181526020018280546100b790610291565b80156101045780601f106100d957610100808354040283529160200191610104565b820191906000526020600020905b8154815290600101906020018083116100e757829003601f168201915b5050505050908060020154905083565b600080fd5b6000819050919050565b61012c81610119565b811461013757600080fd5b50565b60008135905061014981610123565b92915050565b60006020828403121561016557610164610114565b5b60006101738482850161013a565b91505092915050565b61018581610119565b82525050565b600081519050919050565b600082825260208201905092915050565b60005b838110156101c55780820151818401526020810190506101aa565b838111156101d4576000848401525b50505050565b6000601f19601f8301169050919050565b60006101f68261018b565b6102008185610196565b93506102108185602086016101a7565b610219816101da565b840191505092915050565b6000606082019050610239600083018661017c565b818103602083015261024b81856101eb565b905061025a604083018461017c565b949350505050565b7f4e487b7100000000000000000000000000000000000000000000000000000000600052602260045260246000fd5b600060028204905060018216806102a957607f821691505b6020821081036102bc576102bb610262565b5b5091905056fea2646970667358221220f96eb4815a32c2b23655cdd7f9125dd8a4abfc340e8ece4bcbf88ba22daee44664736f6c634300080d0033",
  "immutableReferences": {},
  "source": "// SPDX-License-Identifier: MIT\r\n\r\npragma solidity >=0.5.0 <0.9.0;\r\n\r\ncontract Election{\r\n    // Model of Candidate\r\n\r\n    struct Candidate {\r\n        uint id;\r\n        string name;\r\n        uint voteCount;\r\n    }\r\n\r\n    // Provide a key=value relationship between an unsigned int to \"Candidate\"\r\n    mapping (uint=>Candidate) public candidates;\r\n\r\n}  ",
  "sourcePath": "C:\\Users\\User\\Desktop\\Full stack\\Dev test\\contracts\\Election.sol",
  "compiler": {
    "name": "solc",
    "version": "0.8.13+commit.abaa5c0e.Emscripten.clang"
  },
  "schemaVersion": "3.4.7",
  "updatedAt": "2022-07-21T13:26:36.555Z",
  "devdoc": {
    "kind": "dev",
    "methods": {},
    "version": 1
  },
  "userdoc": {
    "kind": "user",
    "methods": {},
    "version": 1
  }
}